:100000000C94C5000C94E2000C94E2000C94E20005
:100010000C94E2000C94E2000C94E2000C94E200D8
:100020000C94E2000C94E2000C94E2000C94E200C8
:100030000C94E2000C9482010C94E2000C94E20017
:100040000C94E2000C94E2000C94E2000C94E200A8
:100050000C94E200494E46494E4954594E414ECD0A
:10006000CCCC3D0AD7233C17B7D13877CC2B32956F
:1000700095E6241FB14F0A000020410000C842004D
:10008000401C4620BCBE4CCA1B0E5AAEC59D740017
:10009000407A10F35A00A0724E18090010A5D4E857
:1000A0000000E87648170000E40B54020000CA9AEA
:1000B0003B000000E1F5050000809698000000403C
:1000C000420F000000A08601000000102700000081
:1000D00000E803000000006400000000000A0000C7
:1000E0000000000100000000002C76D888DC674F7B
:1000F0000823DFC1DFAE59E1B1B796E5E3E453C6AB
:100100003AE651997696E8E6C28426EB898C9B62A2
:10011000ED407C6FFCEFBC9C9F40F2BAA56FA5F44C
:1001200090055A2AF75C936B6CF9676DC11BFCE074
:10013000E40D47FEF520E6B500D0ED902E030094C7
:100140003577050080841E080000204E0A0000005C
:10015000C80C333333330F986E12831141EF8D2166
:1001600014893BE65516CFFEE6DB18D1844B381BCD
:10017000F77C1D901DA4BBE424203284725E228192
:1001800000C9F124ECA1E53D270011241FBECFE5F5
:10019000D8E0DEBFCDBF12E0A0E6B0E0E8E1F0E2DB
:1001A00002C005900D92AE35B107D9F714E0AEE567
:1001B000B2E001C01D92A731B107E1F70E94EC0542
:1001C0000C940A100C94000088BB85B38C7F85BB0F
:1001D000AA9A82E08A95F1F7AA9880E797E10197B9
:1001E000F1F7089588BBA99885B3856085BB82E047
:1001F0008A95F1F7AA9880ED97E00197F1F70895B5
:1002000084B3876084BB8FEF87BB80E49CE9019750
:10021000F1F788E30E94E4008CE00E94E40086E0AD
:100220000E94E40081E00E94E40080E80E94E40073
:100230000895CF93DF93EC0102C00E94F2008991F0
:100240008823D9F7DF91CF910895CF93DF93EA0107
:10025000813021F46F70862F806811C0823021F4C4
:100260006F70862F806C0BC0833021F46B70862FEB
:10027000846905C0843029F46B70862F846D0E94D8
:10028000E400CE010E941901DF91CF91089581E031
:100290000E94E40080E80E94E40008959B01AC0104
:1002A0008AB188698AB980B5866880BD64E0220F0A
:1002B000331F441F551F6A95D1F760E072E18AE74A
:1002C00090E00E945C08C901DA01215029B9019728
:1002D000A109B109892F9A2FAB2FBB2780BD0895A3
:1002E0005F9BFECF8CB108958CB95D9BFECF0895C6
:1002F000FC0104C08CB95D9BFECF319680818823C0
:10030000C9F708951F920F920FB60F9211242F93E1
:100310003F934F935F938F939F93EF93FF935FB7B9
:10032000F8944CB18091600290916102FC01ED5E05
:10033000FC4F408301969093610280936002883C59
:10034000910521F41092610210926002443259F436
:100350001092ED031092EC031092EB031092EA035B
:1003600010925E0245C080915E02882309F14C32F2
:1003700089F48091EA039091EB032091EC03309192
:10038000ED03FC01E050FC4F208301969093EB03BA
:100390008093EA038091EC039091ED03FC01E7590F
:1003A000FD4F408301969093ED038093EC0320C0B2
:1003B0008091EE03873491F48091EF03873471F4D8
:1003C0008091F003813451F481E080935E021092B9
:1003D000EE031092EF031092F0030AC08091EF0336
:1003E0008093EE038091F0038093EF034093F0033A
:1003F0005FBFFF91EF919F918F915F914F913F91DF
:100400002F910F900FBE0F901F90189588ECE3E18D
:10041000F3E0DF011D928A95E9F7109261021092D4
:1004200060020895CF92DF92EF92FF920F931F9395
:10043000DF93CF9300D000D00F92CDB7DEB77C0111
:100440007CE0C72ED12C03C00894C11CD11CF7013D
:10045000EC0DFD1D80818D3021F084E6C816D1049D
:1004600099F7B701645F7F4FA6014C505040CE0111
:1004700001960E94C108C6010296D7010D90002086
:10048000E9F78D01015010400E191F09081B190BC7
:100490009701280F391FC701B901A8010E94A308BD
:1004A000065010400E0D1F1DC80160E670E046E0CA
:1004B00050E00E94B308009749F49601285F3F4F2F
:1004C000C80160E070E0A9010E94AC080F900F9095
:1004D0000F900F900F90CF91DF911F910F91FF9090
:1004E000EF90DF90CF9008952F923F924F925F92BE
:1004F0006F927F928F929F92AF92BF92CF92DF9234
:10050000EF92FF920F931F93CF93DF93AA24BB2404
:100510006501E0ED2E2EE7E03E2E80916202909183
:100520006302A0916402B0916502805E914BAF4F6F
:10053000BF4FA816B906CA06DB0660F010925F022C
:10054000109262021092630210926402109265028D
:1005500082E052C080911404843041F4109266020B
:10056000109268021092670210921404E3E1F3E023
:1005700001900020E9F73197E351F3402F01662401
:100580007724411451046104710409F45DC0C10170
:100590000197F1F780915F02882E992482E090E024
:1005A000880E991EC3E1D3E0EE24FF2487018091D9
:1005B00068028093670288818093680287E692E0F0
:1005C00067E670E042E050E00E94B308009749F50A
:1005D000809166028F5F8093660290E0881599058E
:1005E00001F510925F021092620210926302109263
:1005F00064021092650281E080931404DF91CF9130
:100600001F910F91FF90EF90DF90CF90BF90AF9030
:100610009F908F907F906F905F904F903F902F9022
:1006200008950894E11CF11C011D111D2196E4148C
:10063000F5040605170508F4BACF0894A11CB11CEF
:10064000C11CD11C10926602C1010197F1F70894F8
:10065000A11CB11CC11CD11C60CF84E08093140488
:100660000E947402809114048823D1F30895CF93DB
:10067000DF93EC010E94060280ED97E028EC30E069
:10068000F9013197F1F70197D9F70E942D03809175
:100690001404823011F480E00AC083E193E0BE01CB
:1006A0000E94D0089C0180E0232B09F081E0DF91BB
:1006B000CF910895EF92FF920F931F93DF93CF9303
:1006C000CDB7DEB769970FB6F894DEBF0FBECDBFCA
:1006D0007B012DB73EB7285030400FB6F8943EBF8F
:1006E0000FBE2DBFEDB7FEB731968E010F5F1F4FC6
:1006F000ADB7BEB712961C930E9311972AE630E061
:100700003383228384831582778366830E94EA0879
:10071000198E2DB73EB7285F3F4F0FB6F8943EBFF6
:100720000FBE2DBFC8010E94780182E080935F0256
:100730008DE790E00E943703882331F083E193E056
:10074000B7010E94120281E069960FB6F894DEBFED
:100750000FBECDBFCF91DF911F910F91FF90EF9012
:100760000895882319F487E890E004C0813021F4CB
:1007700088E990E00E94780189EA90E00E943703BE
:1007800008958CEA90E00E94780189EA90E00E9446
:10079000370308958AEB90E00E94780182E080930D
:1007A0005F0288EC90E00E943703089584ED90E0AA
:1007B0000E94780189EA90E00E943703089581EE53
:1007C00090E00E94780189EA90E00E943703089542
:1007D0000E94D6030E94DF030895EF92FF920F93C9
:1007E0001F93CF93DF93EC018B017A018EEE90E0A3
:1007F0000E94780188EF90E00E943703882309F473
:1008000045C083E091E00E94780189EA90E00E946F
:10081000370381E191E00E94780189EA90E00E942B
:10082000370380E391E00E947801CE010E947801B5
:1008300085E491E00E94780189EA90E00E94370304
:1008400088E491E00E947801C8010E94780185E463
:1008500091E00E94780189EA90E00E9437038EE5DA
:1008600091E00E947801C7010E94780185E491E03F
:100870000E94780189EA90E00E94370383E791E0C3
:100880000E94780189EA90E00E943703DF91CF91BE
:100890001F910F91FF90EF900895EF92FF920F93A9
:1008A0001F938C017B0181E891E00E947801C801CF
:1008B0000E9478018FE891E00E947801C7010E94B0
:1008C000780185E491E00E94780189EA90E00E9435
:1008D00037031F910F91FF90EF90089583E991E006
:1008E0006BE971E00E944D040895BC018CEA91E02F
:1008F0000E944D0408950F931F93CF93DF938C01B3
:10090000EB0180EB91E064EB71E00E944D048CEA16
:1009100091E0B8010E944D0480E00E94B10386EB93
:1009200091E00E94370380911404823029F080E026
:10093000BE010E945A0381E0DF91CF911F910F9178
:100940000895CF93DF93EB010E9478018DE08CB97D
:100950005D9BFECFCE010E943703DF91CF910895BA
:100960001F9310E085EC91E069EA70E00E94A10419
:10097000882341F48AEC91E069EA70E00E94A104C6
:10098000882341F080EB91E064EB71E00E944D041C
:1009900081E004C01F5F153029F780E01F910895A2
:1009A000EF92FF920F931F93DF93CF93CDB7DEB7F4
:1009B00069970FB6F894DEBF0FBECDBFF82EE92EB3
:1009C000E82FF92FDF010D900020E9F71197AE1BFA
:1009D000BF0B8DB79EB708970FB6F8949EBF0FBE9A
:1009E0008DBF2DB73EB72F5F3F4F8E010F5F1F4F5B
:1009F000EDB7FEB7128301838DEC91E0F90193838B
:100A00008283B583A48380E197E2978386830E94E3
:100A1000EA088DB79EB708960FB6F8949EBF0FBE32
:100A20008DBFC8010E94780180EE91E00E943703DB
:100A3000882331F08F2D9E2D69EA70E00E94A10479
:100A400069960FB6F894DEBF0FBECDBFCF91DF9190
:100A50001F910F91FF90EF9008950F931F93CF93E5
:100A6000DF938C01EB0180EB91E064EB71E00E947D
:100A70004D04C8010E94D0048823C1F081E00E9487
:100A8000B103882399F089EE91E00E943703982FF3
:100A900080911404823051F0992311F485E007C04D
:100AA00080E0BE010E945A0381E001C082E0DF9134
:100AB000CF911F910F910895AF92BF92CF92DF9285
:100AC000EF92FF920F931F930E949F0820E030E067
:100AD00048EC52E40E9435077B018C010E949D077F
:100AE000882777FD8095982F0E94D0075B016C01C5
:100AF000C801B701A60195010E94D0062AE939E98B
:100B000049E15FE30E9435079B01AC01C601B501D5
:100B10000E94D10646E024E00FEF12E00E947E081A
:100B20001F910F91FF90EF90DF90CF90BF90AF900B
:100B30000895F8948F5F90E003C0E552FC4F208346
:100B4000E82FF0E0E759FD4F2081E92FF0E09F5FAB
:100B50008F5F2C3291F7E552FC4F2083E92FF0E0B4
:100B6000E552FC4FA82FB0E0A759BD4F8C91808370
:100B70008BED93E00E945C0578940895F8948F5F64
:100B800090E007C0E92FF0E0EF50FC4F20839F5F1B
:100B90008F5FE82FF0E0E759FD4F20812C3211F0F4
:100BA000222381F7E92FF0E0EF50FC4F10822C3226
:100BB00069F420839F5FE92FF0E0EF50FC4F8F5FD7
:100BC000A82FB0E0A759BD4F8C91808381EF93E0AF
:100BD0000E945C05789408952F923F924F925F9205
:100BE0006F927F928F929F92AF92BF92CF92DF923D
:100BF000EF92FF920F931F93DF93CF93CDB7DEB7A2
:100C0000C456D0400FB6F894DEBF0FBECDBF1092D1
:100C1000ED031092EC0386E9E9E6F2E0DF011D92B4
:100C20008A95E9F784E1EFEFF2E0DF011D928A9502
:100C3000E9F70E94000180E395E728EC30E0F90134
:100C40003197F1F70197D9F760E875E280E090E01D
:100C50000E944E01789420E137E294E6292E7E012D
:100C60000894E11CF11C81E2482E82E0582E00E439
:100C7000602E02E0702E11EF812E13E0912EBBED5D
:100C8000AB2EB3E0BB2E08EC10E0AFEFCA2EA2E013
:100C9000DA2EF4E13F2E05C0C8010197F1F721508B
:100CA000304021153105C1F70E94CA03882351F451
:100CB0008FEE91E06FEF71E046E052E00E94ED03AD
:100CC0000E94E803F701822D11928A95E9F787E0E7
:100CD00092E00E9475040E94C103ADB7BEB71A9797
:100CE0000FB6F894BEBF0FBEADBFEDB7FEB73196DD
:100CF0001296FC92EE921197538242827582648220
:100D000097828682B186A0860E94EA08EDB7FEB778
:100D10003A960FB6F894FEBF0FBEEDBFC70164E66A
:100D200070E00E942D058FEF9FEFF8013197F1F7EA
:100D30000197D9F781E060E041E552E00E9425018A
:100D40008091000490E00E94BE058FEF92E00E9427
:100D50001901D601E32D1D92EA95E9F78091F1037F
:100D60008823A1F082E060E047E552E00E9425017F
:100D70008091020490E00E9499058FEF92E00E941A
:100D80001901D601E32D1D92EA95E9F78FEF9FEF48
:100D9000F8013197F1F70197D9F720E137E27CCFDD
:100DA0005058BB27AA270ED04DC13ED130F043D1B9
:100DB00020F031F49F3F11F41EF433C10EF4E0959E
:100DC000E7FB29C1E92F4FD180F3BA1762077307F8
:100DD0008407950718F071F49EF567C10EF4E0954D
:100DE0000B2EBA2FA02D0B01B90190010C01CA01E5
:100DF000A0011124FF27591B99F0593F50F4503E90
:100E000068F11A16F040A22F232F342F4427585F81
:100E1000F3CF469537952795A795F0405395C9F799
:100E20007EF41F16BA0B620B730B840BBAF0915051
:100E3000A1F0FF0FBB1F661F771F881FC2F70EC0F0
:100E4000BA0F621F731F841F48F4879577956795C3
:100E5000B795F7959E3F08F0B3CF9395880F08F0AC
:100E60009927EE0F9795879508950CD0EBC0E3D0A6
:100E700040F0DAD030F021F45F3F19F0CCC05111CE
:100E800015C1CFC0F0D098F39923C9F35523B1F31E
:100E9000951B550BBB27AA2762177307840738F0E9
:100EA0009F5F5F4F220F331F441FAA1FA9F333D048
:100EB0000E2E3AF0E0E830D091505040E695001CFC
:100EC000CAF729D0FE2F27D0660F771F881FBB1FB8
:100ED000261737074807AB07B0E809F0BB0B802D92
:100EE000BF01FF2793585F4F2AF09E3F510568F0DE
:100EF00092C0DCC05F3FECF3983EDCF386957795BB
:100F00006795B795F7959F5FC9F7880F911D9695DF
:100F1000879597F90895E1E0660F771F881FBB1F3B
:100F2000621773078407BA0720F0621B730B840BE8
:100F3000BA0BEE1F88F7E095089504D06894B111BC
:100F4000B5C0089598D088F09F5790F0B92F992791
:100F5000B751A0F0D1F0660F771F881F991F1AF0C4
:100F6000BA95C9F712C0B13081F09FD0B1E00895B1
:100F70009CC0672F782F8827B85F39F0B93FCCF332
:100F8000869577956795B395D9F73EF490958095BA
:100F9000709561957F4F8F4F9F4F0895E89409C0DA
:100FA00097FB3EF490958095709561957F4F8F4F9C
:100FB0009F4F9923A9F0F92F96E9BB279395F695B2
:100FC000879577956795B795F111F8CFFAF4BB0F30
:100FD00011F460FF1BC06F5F7F4F8F4F9F4F16C094
:100FE000882311F096E911C0772321F09EE8872F1E
:100FF000762F05C0662371F096E8862F70E060E0DA
:101000002AF09A95660F771F881FDAF7880F969552
:10101000879597F9089597F99F6780E870E060E0F9
:1010200008959FEF80EC089500240A941616170681
:1010300018060906089500240A94121613061406C9
:1010400005060895092E0394000C11F4882352F02C
:10105000BB0F40F4BF2B11F460FF04C06F5F7F4FE4
:101060008F4F9F4F089557FD9058440F551F59F0CB
:101070005F3F71F04795880F97FB991F61F09F3F85
:1010800079F087950895121613061406551FF2CFAE
:101090004695F1DF08C0161617061806991FF1CFFE
:1010A00086957105610508940895E894BB27662725
:1010B0007727CB0197F90895A1E21A2EAA1BBB1B33
:1010C000FD010DC0AA1FBB1FEE1FFF1FA217B30714
:1010D000E407F50720F0A21BB30BE40BF50B661F2A
:1010E000771F881F991F1A9469F7609570958095EE
:1010F00090959B01AC01BD01CF010895EF92FF9245
:101100000F931F93F22FF02E47FD02C0E4E001C0C1
:10111000E4E1242F332727FD309537FF03C03095B6
:1011200021953F4F4F2D512F0F2FEE2E0E94EB0A8E
:101130008F2D912F1F910F91FF90EF9008956627AB
:1011400077270C944D0CFB01DC0102C001900D923D
:1011500041505040D8F70895DC0101C06D934150D3
:101160005040E0F70895FB01DC014150504030F061
:101170008D910190801919F40020B9F7881B990B03
:101180000895FB01DC014150504048F001900D9260
:101190000020C9F701C01D9241505040E0F708956A
:1011A000FB0151915523A9F0BF01DC014D91451779
:1011B0004111E1F759F4CD010190002049F04D9122
:1011C00040154111C9F3FB014111EFCF81E090E0DF
:1011D00001970895AEE0B0E0E0EFF8E00C94E10F85
:1011E0000D891E8986E08C831A8309838FEF9FE720
:1011F0009E838D839E01275E3F4FCE0101966F89AE
:10120000788DA9010E940E092F813885020F131FC6
:10121000F80110822E96E4E00C94FD0FABE0B0E0F4
:10122000E4E1F9E00C94D30F3C012B015A01FC01DD
:1012300017821682838181FD03C06FEF7FEFC6C1E5
:101240009AE0892E1E010894211C311CF301238190
:10125000F20123FD859123FF81912F01882309F459
:10126000B2C1853239F423FD859123FF81912F018D
:10127000853229F490E0B3010E94BB0EE7CF982F8E
:10128000FF24EE249924FFE1FF15D0F09B3269F092
:101290009C3228F4903259F0933291F40EC09D3272
:1012A00049F0903369F441E024C052E0F52A84E02B
:1012B000F82A28C098E0F92A25C0E0E1FE2A22C0D9
:1012C000F7FC29C0892F80538A3070F4F6FE05C0E0
:1012D000989C902C1124980E15C0E89CE02C1124A9
:1012E000E80EF0E2FF2A0EC09E3229F4F6FC6BC134
:1012F00040E4F42A07C09C3619F450E8F52A02C0ED
:10130000983649F4F20123FD959123FF91912F0125
:10131000992309F0B8CF892F8554833018F0805273
:10132000833038F444E050E0A40EB51E5FE35983E7
:101330000FC0933631F0933779F0933509F056C0EA
:1013400020C0F5018081898342E050E0A40EB51EE3
:10135000610101E010E012C0F501C080D180F6FC0F
:1013600003C06FEF7FEF02C0692D70E042E050E0F4
:10137000A40EB51EC6010E94B00E8C015FE7F522D7
:1013800014C0F501C080D180F6FC03C06FEF7FEF81
:1013900002C0692D70E042E050E0A40EB51EC60107
:1013A0000E94A50E8C0150E8F52AF3FE07C01AC072
:1013B00080E290E0B3010E94BB0EEA948E2D90E093
:1013C00008171907A8F30EC0F601F7FC8591F7FE80
:1013D00081916F0190E0B3010E94BB0EE110EA948D
:1013E000015010400115110579F7EAC0943611F04B
:1013F000993669F5F7FE08C0F501208131814281F7
:10140000538184E090E00AC0F501808191819C01C4
:10141000442737FD4095542F82E090E0A80EB91E76
:101420009FE6F92257FF09C05095409530952195C8
:101430003F4F4F4F5F4FE0E8FE2ACA01B901A101BB
:101440002AE030E00E94E70ED82ED21840C095372F
:1014500029F41F2D1F7E2AE030E01DC01F2D197FAB
:101460009F3661F0903720F4983509F0ACC00FC07A
:10147000903739F0983709F0A6C004C028E030E072
:101480000AC0106114FD146020E130E004C014FDB6
:10149000166020E132E017FF08C0F501608171811C
:1014A0008281938144E050E008C0F5018081918100
:1014B000BC0180E090E042E050E0A40EB51EA10126
:1014C0000E94E70ED82ED2188FE7F82EF122F6FEF2
:1014D0000BC05EEFF522D91438F4F4FE07C0F2FC1D
:1014E00005C08FEEF82202C01D2D01C0192DF4FE9B
:1014F0000DC0FE01ED0DF11D8081803319F499EED0
:10150000F92208C01F5FF2FE05C003C08F2D867848
:1015100009F01F5F0F2DF3FC14C0F0FE0FC01E1565
:1015200010F09D2C0BC09D2C9E0C911A1E2D06C0F8
:1015300080E290E0B3010E94BB0E1F5F1E15C0F356
:1015400004C01E1510F4E11A01C0EE2404FF0FC000
:1015500080E390E0B3010E94BB0E02FF1DC001FDBD
:1015600003C088E790E00EC088E590E00BC0802FB4
:10157000867891F001FF02C08BE201C080E2F7FCA7
:101580008DE290E0B3010E94BB0E06C080E390E0C4
:10159000B3010E94BB0E9A94D914C0F3DA94F101FE
:1015A000ED0DF11D808190E0B3010E94BB0EDD20A6
:1015B000A9F706C080E290E0B3010E94BB0EEA9456
:1015C000EE20C1F743CEF30166817781CB012B96E4
:1015D000E2E10C94EF0FA9E0B0E0E1EFFAE00C9447
:1015E000D70F6A01122FA02EBE2C2BE3201718F460
:1015F0002CE3922E02C0902E9394AE014F5F5F4F6A
:1016000027E0092D0E94AD0DBC018981E82EFF2441
:10161000C70189709070019711F4ADE209C0B1FE65
:1016200002C0ABE205C0B0FC02C0A0E001C0A0E275
:10163000E3FE3BC0AA2311F423E001C024E02117FC
:1016400010F020E002C0121B212FEB2CB4FE02C0D0
:10165000322F0AC0F601322F80E202C0819331504E
:101660003323E1F7C20ED11CAA2319F0F601A1938E
:101670006F01F6013196E2FE05C09EE4D6019C930F
:1016800081E404C09EE6D6019C9381E611968C937A
:1016900091833296DF01832F90E202C09D938150A7
:1016A0008823E1F7E30FF11D40C0E2FE42C0AA2308
:1016B00011F423E001C024E0211710F020E002C063
:1016C000121B212FEB2CB4FE02C0922F0AC0F60190
:1016D000922F80E202C0819391509923E1F7C20ECC
:1016E000D11CAA2319F0F601A1936F01F6013196DE
:1016F000E2FE08C089E4D6018C938EE411968C93A7
:1017000086E407C089E6D6018C938EE611968C9309
:1017100086E681833296DF01892F20E202C02D9375
:1017200081508823E1F7E90FF11D10822EEF3FEF82
:10173000AFC0161617061CF041E050E003C0AB0125
:101740004F5F5F4FAA2019F480E090E003C08A2D1C
:1017500090E0019620E030E0AA2311F021E030E093
:10176000240F351F280F391F812F90E028173907C4
:1017700014F020E002C0121B212F4B2D50E0CA01B3
:1017800080719070B4FC0DC0B3FC0BC0F601322F19
:1017900040E202C0419331503323E1F7C20ED11C25
:1017A00001C0322FAA2319F0F601A1936F01892BF2
:1017B00011F0132F0AC0F601132F80E302C08193AA
:1017C00011501123E1F7C30ED11C092D060FBA8069
:1017D00090E1892E912C8E209F20E4FE04C0F1E33D
:1017E000BF1609F40150101614F001E003C00930CF
:1017F00008F008E09B0177FF02C020E030E0CB0159
:101800000196821B930BFE013196E80FF91F8EE2C1
:10181000F82E3B01601A71088A2D90E04427552765
:10182000481B590B8FEF2F3F380719F4D601FD9253
:101830006D01621773072CF06216730614F4808131
:1018400001C080E32150304031962417350724F041
:10185000D6018D936D01E6CF2617370749F4B5E31E
:10186000BB1528F0BB1621F48114910409F481E31F
:10187000F6018193D601812F90E202C09C938150A2
:1018800011968823D9F7E10FF11D108220E030E096
:10189000C9012996EEE00C94F30FA0E0B0E0E3E577
:1018A000FCE00C94D90FEC015B016115710519F096
:1018B000FB0191838083F9908F2D90E00E94850E2B
:1018C000892BC9F7FDE2FF1621F4F990EE24E39489
:1018D00005C02BE2F21609F4F990EE248E010150B6
:1018E0001040C80164E570E043E050E00E948D0EB6
:1018F000892B01F58E010E5F1F4FC80167E570E06F
:1019000045E050E00E948D0E892B19F48E01095F8D
:101910001F4FA114B10419F0F50111830083E0FCFD
:1019200004C070E090E080E814C070E090E080E8CF
:101930006FEF08C1C8016CE570E043E050E00E9421
:101940008D0E892B69F4A114B10429F470E090E0A4
:1019500080EC6FE7F7C02296F501D183C083F6CF04
:101960008824992440E050E060E070E0EF2DE053DF
:10197000EA30A0F5F2E0EF2A8E2D90E09C0128706D
:101980003070E2FE06C0232B79F50894811C911C6F
:101990002BC0232B19F0089481089108DB01CA01A0
:1019A00012E0880F991FAA1FBB1F1A95D1F7480F85
:1019B000591F6A1F7B1F440F551F661F771F4E0F4D
:1019C000511D611D711D483929E9520729E9620736
:1019D00029E1720748F084E0E82A06C0EE3F31F4BE
:1019E000E3FC39C098E0E92AF990C0CFE53311F063
:1019F000E53189F529912D3219F4E0E1EE2A05C08F
:101A00002B3219F081E090E003C0299182E090E050
:101A1000E22FE053EA3018F0C81BD90B1CC020E0BD
:101A200030E0FCE020383F075CF4C901880F991FC3
:101A3000880F991F280F391F220F331F2E0F311DBA
:101A4000E991E053EA3068F3E4FE03C03095219554
:101A50003F4F820E931ECE2CDD24E1FE07C0A11461
:101A6000B10421F02197F501D183C083CB01BA01E4
:101A70000E94CE077B018C01F3E0CF22DD2423E01E
:101A8000C216D10421F417FB109517F910955701D0
:101A90006801C801B70120E030E040E050E00E945A
:101AA000450F882309F44AC097FE0DC023E7E22EB4
:101AB00020E0F22E9094819491089394C0E2D0E0BB
:101AC00000E010E012C09BE8E92E90E0F92EF6CF7E
:101AD000F7012591359145915491C601B5010E94B8
:101AE0006D0F5B016C018C1A9D0A8C169D0684F7A4
:101AF000D595C7950F5F1F4F0630110529F08CEF64
:101B00009FEFE80EF91EF1CFC501D6017C018D01D2
:101B10008C2D880F8D2D881F8F3F51F0C601B50188
:101B200020E030E040E050E00E94450F882331F48F
:101B300082E290E090931604809315047E2D9F2DF1
:101B4000802F612F272F392F482F562FB901CA0117
:101B5000CDB7DEB7ECE00C94F50F283008F027E0A5
:101B60003327DA01990F311D87FD916000966105D9
:101B7000710539F432602E5F3D9330E32A95E1F729
:101B800008959F3F30F080387105610509F03C5F92
:101B90003C5F3D93913008F08068911DDF93CF93B7
:101BA0001F930F93FF92EF92192F987F9695E92F2D
:101BB00096959695E90FFF27E751FF4F9927332711
:101BC000EE24FF24A701E70105900894079428F468
:101BD000360FE71EF81E491F511D660F771F881F1D
:101BE000991F0694A1F70590079428F4E70EF81EB4
:101BF000491F561FC11D770F881F991F661F069426
:101C0000A1F70590079428F4F80E491F561FC71F27
:101C1000D11D880F991F661F771F0694A1F70590A5
:101C2000079420F4490F561FC71FD81F990F661F2E
:101C3000771F881F0694A9F784911095177041F0BB
:101C4000D695C79557954795F794E7941A95C1F798
:101C5000EFE8F0E0689415901591359165919591B4
:101C600005907FE27395E118F10A430B560BC90BFF
:101C7000D009C0F7E10CF11E431F561FC91FD01D2C
:101C80007EF4703311F48A95E6CFE894015030F079
:101C9000080F0AF40027021708F4202F2395022FBB
:101CA0007A3328F079E37D932A95E9F710C07D9384
:101CB0002A9589F606949795679537951795179401
:101CC000E118F10A430B560BC90BD00998F0239584
:101CD0007E9173957A3308F070E37C932013B8F704
:101CE0007E9170617D9330F0839571E37D9370E315
:101CF0002A95E1F71124EF90FF900F911F91CF915A
:101D0000DF91992787FD90950895911149C18032FF
:101D100019F089508550D0F70895FB01DC0141503E
:101D2000504088F08D9181341CF08B350CF4805E2E
:101D3000659161341CF06B350CF4605E861B61119B
:101D400071F3990B0895881BFCCFFC01059061503D
:101D500070400110D8F7809590958E0F9F1F0895C1
:101D6000FC016150704001900110D8F7809590956A
:101D70008E0F9F1F08950F931F93CF93DF938C01B6
:101D8000EB018B8181FF1BC082FF0DC02E813F8143
:101D90008C819D812817390764F4E881F9810193CA
:101DA000F983E88306C0E885F985802F0995892B9A
:101DB00031F48E819F8101969F838E8302C00FEF45
:101DC0001FEFC801DF91CF911F910F910895FA0184
:101DD000AA27283051F1203181F1E8946F936E7F6A
:101DE0006E5F7F4F8F4F9F4FAF4FB1E03ED0B4E05B
:101DF0003CD0670F781F891F9A1FA11D680F791F9C
:101E00008A1F911DA11D6A0F711D811D911DA11DAC
:101E100020D009F468943F912AE0269F11243019BC
:101E2000305D3193DEF6CF010895462F4770405D57
:101E30004193B3E00FD0C9F7F6CF462F4F70405D06
:101E40004A3318F0495D31FD4052419302D0A9F761
:101E5000EACFB4E0A6959795879577956795BA955B
:101E6000C9F700976105710508959B01AC010A2E21
:101E700006945795479537952795BA95C9F7620FF8
:101E8000731F841F951FA01D089503D008F481E0DF
:101E90000895990F0008550FAA0BE0E8FEEF1616FB
:101EA0001706E807F907C0F012161306E407F5074E
:101EB00098F0621B730B840B950B39F40A2661F0C2
:101EC000232B242B252B21F408950A2609F4A14065
:101ED000A6958FEF811D811D08950BD0B3C8A4D89E
:101EE00028F0A9D818F0952309F095C89AC81124AC
:101EF000DDC8B9D8A0F3959FD1F3950F50E0551FD9
:101F0000629FF001729FBB27F00DB11D639FAA274E
:101F1000F00DB11DAA1F649F6627B00DA11D661F9D
:101F2000829F2227B00DA11D621F739FB00DA11DBE
:101F3000621F839FA00D611D221F749F3327A00D78
:101F4000611D231F849F600D211D822F762F6A2F14
:101F500011249F5750408AF0E1F088234AF0EE0F99
:101F6000FF1FBB1F661F771F881F91505040A9F7A6
:101F70009E3F510570F04FC899C85F3FECF3983E03
:101F8000DCF3869577956795B795F795E7959F5F0D
:101F9000C1F7FE2B880F911D9695879597F90895A7
:101FA0009927882708952F923F924F925F926F92C0
:101FB0007F928F929F92AF92BF92CF92DF92EF92D9
:101FC000FF920F931F93CF93DF93CDB7DEB7CA1B5A
:101FD000DB0B0FB6F894DEBF0FBECDBF09942A8885
:101FE000398848885F846E847D848C849B84AA842D
:101FF000B984C884DF80EE80FD800C811B81AA81BA
:10200000B981CE0FD11D0FB6F894DEBF0FBECDBF84
:08201000ED010895F894FFCFE3
:102018000D0A4F4B0D0A000D0A0041542B48545429
:1020280050524541443D25642C25640D002B4854ED
:102038005450524541440041542B48545450414354
:1020480054494F4E3D300D0041542B485454504193
:102058004354494F4E3D310D004F4B0041542B48DE
:1020680054545053434F4E540D0041542B53415038
:1020780042523D322C310D002B53415042523A20EE
:10208800312C310041542B485454505445524D0D75
:102098000041542B48545450494E49540D00415462
:1020A8002B435245473F0D002B435245473A2030BA
:1020B8002C310041542B53415042523D302C310DAC
:1020C8000041542B53415042523D332C312C224372
:1020D8004F4E54595045222C2247505253220D003E
:1020E80041542B53415042523D332C312C22415004
:1020F8004E222C2200220D0041542B5341504252B3
:102108003D332C312C2255534552222C2200415468
:102118002B53415042523D332C312C2250574422EC
:102128002C220041542B53415042523D312C310D49
:102138000041542B48545450504152413D220022F2
:102148002C2200434F4E54454E54006170706C6908
:10215800636174696F6E2F6A736F6E0055524C001D
:102168004349440031002B48545450414354494F8B
:102178004E3A302C00415445300041540041542B14
:1021880048545450444154413D25642C25640D0065
:10219800444F574E4C4F4144002C3230302C0044B1
:1021A80069616C6F6720696E7465726E657400731F
:1021B80061756D796100006170692E7468696E6778
:1021C800737065616B2E636F6D2F757064617465D4
:1021D800006170695F6B65793D2573266669656C7A
:1021E80064313D2573266669656C64323D2573004C
:1021F80052484E4545333557585830504C374C5354
:0E220800004C61743A20004C6F6E673A200063
:00000001FF
